:020000040800F2
:1000000000000220A9110008F5110008F5110008F0
:10001000F5110008F5110008F511000800000000B6
:10002000000000000000000000000000F5110008C2
:10003000F511000800000000F5110008A10B0008F0
:10004000F5110008F5110008F5110008F511000878
:10005000F5110008F5110008F5110008F511000868
:10006000F5110008F5110008F5110008F511000858
:10007000F5110008F5110008F5110008F511000848
:10008000F5110008F5110008F5110008F511000838
:10009000F5110008F5110008F5110008F511000828
:1000A000F5110008F5110008F5110008F511000818
:1000B000F5110008F5110008F5110008F511000808
:1000C000F5110008F5110008F5110008F5110008F8
:1000D000F5110008F5110008F5110008F5110008E8
:1000E000F5110008F5110008F5110008F5110008D8
:1000F000F5110008F5110008F5110008F5110008C8
:10010000F5110008F5110008F5110008F5110008B7
:10011000F5110008F5110008F5110008F5110008A7
:10012000F5110008F5110008F5110008F511000897
:10013000F51100080000000000000000F5110008A3
:10014000F5110008F5110008F5110008F511000877
:10015000F5110008F5110008F5110008F511000867
:10016000F5110008F5110008F5110008F511000857
:10017000F5110008F5110008F51100080000000055
:1001800000000000F5110008000000000000000061
:10019000F51100080000000000000000F511000843
:1001A000000000000000000000000000F511000841
:1001B000F5110008F5110008F5110008F511000807
:1001C000F511000810B5054C237833B9044B13B171
:1001D0000448AFF300800123237010BDBC0A002047
:1001E00000000000F8290108084B10B51BB10849B0
:1001F0000848AFF300800848036803B910BD074BF7
:10020000002BFBD0BDE81040184700BF00000000E5
:10021000C00A0020F8290108B80A002000000000E8
:10022000154B002B08BF134B9D46A3F5803A0021C8
:100230008B460F461348144A121A06F057FA0F4B12
:10024000002B00D098470E4B002B00D09847002081
:10025000002104000D000D48002802D00C480CF0CD
:10026000EDFB05F02DFD2000290000F04FFF04F00C
:100270001FFE00BF00000800000002200000000078
:1002800001110008BC0A00205C1100203DCA0008D2
:10029000C5D9000800220260426070474160704783
:1002A00010B443688BB104685CB18268501012F0DE
:1002B000010F18BF2258204418BFD3585DF8044BD3
:1002C000184708465DF8044B18475DF8044B704723
:1002D000036823B94068003018BF0120704701202F
:1002E0007047C02910B50446006907D0DB290BD13F
:1002F000443002F0C7FE2069DD2105E0DB214430F7
:1003000002F0C0FE2069DC214430BDE8104002F05C
:10031000B9BE70B505460C468E18B44205D014F827
:10032000011B2846FFF7DDFFF7E770BD10B5044657
:1003300000F116010222FFF7ECFF2069C0214430D2
:10034000BDE8104002F09EBE38B5044640F8042BCC
:100350000D46FFF79FFF0123237504F12403A361DA
:100360008023A383002384F820302561E383204683
:1003700038BD037D1BB10068443002F0C5BE704734
:10038000514049BA0A0102F47F224A4012B2C2F334
:1003900003305040C0F34A1303F4FF63584080B267
:1003A000704770B505460C4618468E18B44206D004
:1003B000024614F8011B2846FFF7E2FFF6E770BD7E
:1003C0007FB5C68B8469B21E002392B221462644B3
:1003D0000546FFF7E6FF36F8023C834207D0284681
:1003E0001749FFF7C6FF4FF07C5002F0A9FF2188A4
:1003F00062682868022905D11249443002F084FE5F
:1004000020461BE0032912D163880F49443002F0D3
:100410007BFE65682846FFF75BFF78B1214601A89F
:1004200000F000F901A92846FFF73AFF05E013465E
:1004300044300A46054902F067FE002004B070BD52
:10044000C8100108DC100108EC10010802110108B5
:1004500070B5044600250126206902F041FD68B30D
:100460002069443002F030FEC0B2DB2802D184F8AB
:100470002060F1E7C028E38B0CD1072B03D920467D
:10048000FFF79EFF00E00020E58384F8205000285D
:10049000E2D070BD94F8202042B1DC2803D0DD28E2
:1004A00008BFDB2000E0C02084F82050A28B9A42D5
:1004B000D2D9A269591CE183D054CDE770BD70B583
:1004C00004460E4600F074FB054600F071FB401B2D
:1004D000B04205D22046FFF7BBFF0028F5D070BD23
:1004E000002070BD13B5ADF8043000230446C3826C
:1004F0000069ADF806104430C021009202F0C2FD40
:100500000DF1060120460222FFF703FFE38A0DF1F9
:10051000060102222046FFF744FF01A9E0820222E1
:100520002046FFF7F6FEE38A01A902222046FFF7E4
:1005300038FF6946E08204222046FFF7EAFEE38A9C
:10054000042269462046FFF72CFFE08202B010BD6E
:1005500073B502AD044625F8022D0E460222294647
:10056000FFF7D7FEE38A294602222046FFF719FF4C
:10057000BDF80650E0826DB131782046FFF7B1FE3C
:10058000E28A16F8011B2046FFF7FAFE013DE082E1
:10059000ADB2F0E7BDF806506D4205F003054FF629
:1005A000FF76013DADB2B5420AD000212046FFF7EB
:1005B00098FEE28A00212046FFF7E2FEE082F0E7A3
:1005C00002B070BD70B50446251D4FF07C500E463C
:1005D00002F0B6FE204600232A460121FFF782FFE3
:1005E0002046FFF7A3FE31462046FFF768FF48B1DB
:1005F0004268954205D020680349443002F084FDEA
:10060000F1E7012070BD00BF1B11010810B50023E8
:1006100004461A460421FFF765FF2046BDE8104056
:10062000FFF784BE8160002208314160028070477C
:1006300010B5836804885B88A34211D9436833F8F6
:10064000022B4360013404800B60C2F57F43FE330C
:10065000416803F0030313440B44436010B210BD20
:100660004FF0FF3010BDF0B5836806885B88B34259
:100670001ED947683D46013635F8024B4560A24217
:10068000C4F57F4328BF2246FE33023203F0030342
:10069000068001393A44954204D015F8016B01F8FF
:1006A000016FF8E7426823441344436020B2F0BD71
:1006B0004FF0FF30F0BD000038B504460D4699B14B
:1006C00000F1140102222846FFF7CDFF6368B4F958
:1006D000142018680549443002F016FD04F1180191
:1006E0002846FFF7A5FFE08238BD00BF28110108AA
:1006F00038B5044608300D46FFF7CCFD4FF0FF3308
:1007000065602360204638BDF0B587B004468DF89B
:100710000F3000251D4B0493ADF80620059506AA61
:100720000E46A06000F10C0312E9030083E8030009
:1007300004F10802032314216068FFF7D3FE30465A
:10074000676806F0FDFF314682B23846FFF700FFCA
:1007500002220DF106016068FFF7FAFE01220DF199
:100760000F016068FFF7F4FE6068FFF7DFFD4FF4EC
:10077000FA616068FFF7A3FE0028406803D0A84232
:10078000A4BF2060284607B0F0BD00BFB90600082E
:100790002DE9F84390460268089E1D4600239A42C0
:1007A00004460F4683822ADB1DB19E4201DD0323EE
:1007B00000E0022315216068FFF794FE4046D4F85C
:1007C000049006F0BDFF414682B24846FFF7C0FEE6
:1007D0003846D4F8048006F0B3FF394682B240466A
:1007E000FFF7B6FE35B1002E04DDB2B229466068CF
:1007F000FFF7AEFE6068BDE8F843FFF797BDBDE8C0
:10080000F883F7B5054618460E4617461C4606F00F
:1008100097FF234600903A4631462846FFF7B8FF37
:1008200003B0F0BD1346014AFFF7EBBF38110108D2
:1008300010B504460846B4F9143063B1E38AA169DF
:100840009A4228BF1A4605F053FEB4F9140000235B
:10085000A38280B210BD184610BD2DE9F0410446B8
:100860000D461646984600F0A3F90746B4F9143031
:1008700043B900F09DF9C01B404503D26068FFF703
:10088000E7FDF3E7324629462046BDE8F041FFF791
:10089000CFBF000010B5064B036003F120025C33AC
:1008A000044642648364443002F0DAFB204610BD03
:1008B00098140108A0F14400ECE7A0F14800E9E732
:1008C00037B505461249134802F01EFCAB685C8838
:1008D000012C1AD122460DF107012846FFF7C3FE6D
:1008E0000B490C480C4D02F00FFC9DF80720052A1F
:1008F00005D10A49074802F007FC2C7005E00849B9
:10090000044802F001FC00232B7003B030BD00BF8F
:100910004C110108300C0020680C002069110108FE
:100920007811010830B51A4C1A48C5B0FFF790FD90
:1009300022781949194802F0E7FB25462C7824B3A0
:10094000002217491748FFF76DFF4FF48572002109
:1009500001A805F0CBFE41F288334FF4857201A95E
:100960001048FFF77AFFC82809D101AA0E490B48A1
:1009700002F0CAFB4FF07E5002F0E2FCDEE70446D4
:1009800002460A49054802F0BFFB204645B030BD8B
:10099000680C0020E80A00208B110108300C0020B0
:1009A000A11101084C0C0020AA110108C411010872
:1009B00010B53E4C94F90030013304D134223C4947
:1009C0003C4802F0C9FB6368E2683B481B041360C3
:1009D0004FF4E13102F066FA4FF4E131374802F0AA
:1009E00061FA3749374802F08FFB4FF07C5002F034
:1009F000A7FC3349344802F087FB4FF07C5002F0EB
:100A00009FFC32493248FFF749FC4FF07C5002F01E
:100A100097FC4FF4FA612F48FFF7D4FD40B92E49F7
:100A2000284802F071FB4FF07C5002F089FCECE7A3
:100A30002A49244802F068FB2648FFF7E7FD4FF4F7
:100A4000FA612448FFF73BFD78B14268244C022A42
:100A500005D124491B4802F057FB012304E0224939
:100A6000184802F051FB00232370502200231F4935
:100A70001F48FFF749FE024620B11E49114802F007
:100A800043FBFEE71C490F4802F03EFB00221B49D6
:100A90000C4802F039FBFFF745FF04464FF07E504B
:100AA00002F04EFC002CF1D0002010BDD80A00202E
:100AB000DA11010821120108EC0B00208C0B002038
:100AC00039120108300C0020D00B0020C1080008AA
:100AD000EC0A0020E80A002050120108D612010892
:100AE000680C00206A1201087B12010890120108AC
:100AF0004C0C0020A0120108B8120108C91201080C
:100B000010B50446FFF7C6FE204602F03FFE204621
:100B100010BDA0F14400F3E7A0F14800F0E70000A9
:100B2000F8B5184D184F194E194C00230322022115
:100B3000284602F043F93A463146284602F020FEA4
:100B4000002319460122204602F038F93146114EA1
:100B50003A46204602F014FE10220021304605F0ED
:100B6000C5FD30460C4E052102F058FB21462A46B1
:100B70003046FFF7E9FB31460848BDE8F840FFF78B
:100B8000B7BD00BFEC0B0020C8010020950800088D
:100B90008C0B0020D80A0020E80A00204C0C002012
:100BA000024A136801331360704700BF6C0C0020C9
:100BB000014B1868704700BF6C0C002000B585B071
:100BC00002F0DCFA6846052102F028FB10E0039BE6
:100BD000019A1A60962002F0C1FB9DF900300133A2
:100BE00010D0019B039A1B041360962002F0B6FB01
:100BF0009DF900300133EAD105480649342202F05C
:100C0000ABFAE4E702480349342202F0A5FAE8E728
:100C1000EC1201080413010830B50C46A1B00546DA
:100C200002F0ACFA2246294668460BF02BFD041E62
:100C30000EDD0C4B1B687BB1013C0DEB04050DF187
:100C4000FF3414F8011F084801F0EAFFAC42F8D164
:100C500002F0C4FA21B030BD03480221032201F0A2
:100C600079FEE9E79C0D00203C1100200FB400B58F
:100C700083B004A951F8040B0191FFF7CDFF03B035
:100C80005DF804EB04B070470F4A30B49368946881
:100C9000B4F1006F1A4604D0103030BC42F8201076
:100CA00070470A4A03F5E27553F8044B42F8044FC3
:100CB000AB42F9D14FF00052034B10309A6030BC78
:100CC00042F82010704700BF00ED00E0FCFFFF1F5E
:100CD00070B50F4C2368DA68910715D4DA685207AB
:100CE00009D56FF004020B4E1A615D6A3368EB1A86
:100CF000B3F57A7F00D270BD00F098FA23683560B2
:100D000005F57A759D6370BD02F008FB2368E5E781
:100D1000FC100020700C002030B589B001A903A898
:100D200000F048FD00F016FD274B019000220292D2
:100D30001A6C264C264942F008021A641A6C02F01A
:100D400008020292029A1A6A42F008021A621A6AA9
:100D500022F008021A62069B21604FF0FF32E26027
:100D60005BB31C4B4000A3FB0030800C013860607B
:100D7000002516482561A560656101F0EBFA322077
:100D80001549FFF781FF154B10484FF480225A6038
:100D9000294601F04BFA04210C4801F047FA236878
:100DA0000F495A6A0A6002F57A729A63DA6828462D
:100DB00042F00402DA6009B030BD064BA3FB0030FC
:100DC000800C10446060D3E700380240FC10002023
:100DD000000C004083DE1B43D10C000800E100E062
:100DE000700C002008B501F071FCBDE8084000F06F
:100DF00003BA00BF704700BF704700BF704700BF15
:100E000002480221032201F0A5BD00BF3C110020D1
:100E1000036819495A6A8A4270B504461BD11B6996
:100E20000122204600219847421C0646236819D01B
:100E30001B690021022220469847236800221B6973
:100E4000054631462046984723680C4A9B6A9342E0
:100E500004D1284670BD90472368E0E720469847B4
:100E6000284670BD054A9B6A934200D170BD20465A
:100E70009847304670BD00BFF90D0008FD0D000811
:100E8000084B094A026010B403F58071002453F83E
:100E9000042F824208BF1C608B42F8D15DF8044BDE
:100EA000704700BF740C0020981301082DE9F04131
:100EB0000E4684B03A49054606F0E6F828B9394BA3
:100EC0001B6873B104B0BDE8F0812846364906F0CE
:100ED000DBF888B9334B1B6853B1012004B0BDE87F
:100EE000F0810190FFF78CFF019804B0BDE8F0811C
:100EF000FFF786FF0120E5E728462C4906F0C4F8F5
:100F000028B32B4B002402E00134402C26D053F8A8
:100F1000042F002AF8D1274F4FF0FF3347F8243031
:100F20002B783A2B32D0294602A801F0D3FE02A832
:100F300001F026FF80B102A801F008FF88B102A8E5
:100F400001F00EFF47F8240040B1E01CBAE7154B52
:100F50001B68BBB10220B5E747F824004FF0FF3013
:100F6000B0E702A801F0E2FE0546B0B1036802A8AE
:100F7000D3F8088001F0D8FE26F4803201462846D6
:100F8000C047DFE7FFF73CFF02209BE728460A49FE
:100F900002AA06F001F80298D4E747F82400DDE73A
:100FA000781301089C0D00208813010880130108A4
:100FB000740C0020780C0020C413010802280ADDFC
:100FC000C31E074A52F82300002142F8231020B123
:100FD00003685B681847002070474FF0FF30704788
:100FE000780C0020022812DC0E4B1B6870B50C46F2
:100FF00016460BB9FFF704FFA51936B114F8011B0B
:10100000094801F00DFEAC42F8D1304670BD0338FE
:10101000064B53F8200010B103681B6818474FF0C7
:10102000FF3070479C0D00203C110020780C002000
:1010300002280DDC0C4B1B6810B50C460BB9FFF7F2
:10104000DFFE0A4801F0DEFD01232070184610BDC6
:101050000338074B53F8200010B103689B6818470A
:101060004FF0FF33184670479C0D00203C110020C4
:10107000780C0020022807DD0338064B53F82000C7
:1010800020B10368DB681847012070474FF0FF303C
:10109000704700BF780C0020022807DD0338064B9C
:1010A00053F8200020B103681B69184700207047DF
:1010B0004FF0FF30704700BF780C0020022808B5C1
:1010C00004D84FF400534B60002008BD03F0EAFE43
:1010D000092303604FF0FF3008BD00BF014802F054
:1010E000C1B800BFC813010808B5012003F0E0FE35
:1010F00004F0AEBE05F080BB04F0B2B9704700BF8B
:1011000008B5FFF7FBFF08BD704700BF08B5FFF744
:1011100069FEFFF7F9FFBDE80840FFF749BC00BFD3
:10112000074A13681844EFF30881884202D210601E
:1011300018467047034B0C221A604FF0FF3070477F
:10114000CC01002058110020074C08B52368054643
:10115000986803F0C1FF2368D86803F0BDFF05B9A4
:10116000FEE7FFF72BFDFBE710060020002105F04E
:10117000F3BD00BF03F0C2BF704700BF704700BFA0
:1011800008B5FFF7F9FF08BD08B5FFF7F7FF08BD81
:1011900002480349034A02F0F3BA00BF740C00206E
:1011A000F50D0008C8010020DFF830D0002103E071
:1011B0000B4B5B58435004310A480B4B42189A4280
:1011C000F6D30A4A02E0002342F8043B084B9A4255
:1011D000F9D301F085FBFFF723F8704700000220E8
:1011E0007C2D0108C8010020BC0A0020BC0A002098
:1011F0005C110020FEE7000008B50B4B1A6842F4B2
:1012000000721A601A6842F480621A601A6842F426
:1012100080721A60032000F017F80F20FFF77CFDA2
:1012200000F024F8002008BD003C0240024A136888
:1012300001331360704700BF38110020014B18685C
:10124000704700BF38110020074AD1684FF6FF03EE
:101250000B4043F0BF6300F0070043F4003343EA60
:101260000023D360704700BF00ED00E0704700BF6F
:101270002DE9F04F85B00F68DFF820E2DFF820C2DB
:101280007F4E0197002303E00133102B00F09B8079
:101290000122019C9A4014409442F5D14D6825F0FA
:1012A000100ABAF1020F00F091804FEA43090322BD
:1012B000D0F800B002FA09F2D24305F0030802EABE
:1012C0000B0B08FA09F80AF1FF3A4BEA0808BAF1E1
:1012D000010FC0F8008040F2A280D0F80C808F6827
:1012E00002EA080207FA09F842EA0802C260EA00C4
:1012F000CAD54FF0000ACDF80CA0DEF8442042F425
:101300008042CEF84420DEF8448023F0030202F14C
:10131000804208F4804802F59C32CDF80C8003F03E
:101320000308DDF80C90D2F808B04FEA88084FF0B7
:101330000F0909FA08F960452BEA09091CD0514F39
:10134000B84200F08480504FB84200F085804F4F83
:10135000B84200F086804E4FB84200F087804D4F73
:10136000B84200F088804C4FB8420CBF4FF0060ADC
:101370004FF0080A0AFA08FA4AEA090AC2F808A06D
:1013800032686FEA0408EF034CBF224308EA020206
:1013900032607268AF034CBF224308EA02027260F7
:1013A000B268EF024CBF224308EA0202B260F26860
:1013B000AD0203F1010354BF08EA02041443102BE9
:1013C000F4607FF465AF05B0BDE8F08F4FEAD30954
:1013D00000EB890903F00708D9F820204FEA8808B4
:1013E0004FF00F0A0AFA08FA22EA0A0A0A6902FA10
:1013F00008F24AEA0202C9F820204FEA4309032210
:10140000D0F800A002FA09F2D24305F0030802EA7C
:101410000A0A08FA09F84AEA0808C0F80080D0F871
:101420000880CF6802EA080A07FA09F84AEA0808B9
:10143000C0F80880D0F804A0C5F300182AEA040A0E
:1014400008FA03F84AEA0808C0F8048045E74FF0B4
:10145000010A0AFA08FA8FE74FF0020A0AFA08FAB4
:101460008AE74FF0030A0AFA08FA85E74FF0040A00
:101470000AFA08FA80E74FF0050A0AFA08FA7BE749
:10148000003C01400004024000080240000C024001
:1014900000100240001402400018024000380240D0
:1014A0000000024030B583B0234B002201921A6C39
:1014B00042F080521A641B6C03F080530193019B2D
:1014C0004FF4803393FAA3F3B3FA83F303F1845315
:1014D00003F560339B0001221A60FFF7AFFE174C43
:1014E000054605E0FFF7AAFE401BB0F57A7F20D83D
:1014F0006368DA03F6D54FF4003393FAA3F3B3FA33
:1015000083F303F1845303F560339B0001221A60D7
:10151000FFF794FE094C054605E0FFF78FFE401BE0
:10152000B0F57A7F05D863689B03F6D5002003B039
:1015300030BD032003B030BD0038024000700040D1
:10154000F0B5034689B00D46164618B3234C24481F
:1015500000230293216B41F004012163216B059369
:1015600001F0040102914FF4007E0322022703A937
:1015700007930692DDF808C0CDF80CE00497FFF75A
:1015800077FEA36845EAC60223F078431A43A260B7
:1015900009B0F0BD114C0190226B124842F00102DB
:1015A0002263226B059302F0010201924FF4807EC8
:1015B0000322022703A907930692DDF804C0CDF8A1
:1015C0000CE00497FFF754FEA36823F0EC6346EAAF
:1015D00003021543A56009B0F0BD00BF003802400A
:1015E0000008024000000240564A136803F00F034F
:1015F0008B422DE9F0410C46064609D2CBB213705E
:10160000136803F00F038B4202D00120BDE8F08184
:1016100033689A0706D54C48B268816821F0F0011A
:101620000A438260DF0726D57368012B00F08480AF
:101630009A1E012A444A126878D99107E5D5424D8D
:10164000AA6822F003021343AB60FFF7F7FD73684B
:10165000012B074641F288384CD0022B55D0032B82
:1016600005D15DE0FFF7EAFDC01B404561D8AB68DE
:1016700013F00C0FF6D1334A136803F00F039C42AA
:1016800006D2E3B21370136803F00F03A342BCD178
:1016900033685A0706D52C48F268816821F4E05176
:1016A0000A4382601B0707D5274A3169936823F4F0
:1016B000604343EAC103936000F046FD224B0146BC
:1016C000F0229B6892FAA2F203F0F003B2FA82F2DF
:1016D0001E4D1F4CD3400F20EB5C21FA03F3236017
:1016E000FFF71AFB0020BDE8F081FFF7A7FDC01B44
:1016F00040451ED8AB6803F00C03042BF5D1BAE7C4
:10170000FFF79CFDC01B404513D8AB6803F00C03EA
:10171000082BF5D1AFE7FFF791FDC01B404508D876
:10172000AB6803F00C030C2BF5D1A4E7900186D431
:101730006BE70320BDE8F081034A126895033FF58B
:101740007EAF62E7003C024000380240D41301083B
:10175000D0010020084B4FF4E0529B6892FAA2F2AD
:1017600003F4E053B2FA82F204490548D34000681A
:10177000CB5CD840704700BF00380240D41301084A
:10178000D0010020084B4FF460429B6892FAA2F20D
:1017900003F46043B2FA82F204490548D34000687A
:1017A000CB5CD840704700BF00380240D41301081A
:1017B000D00100200E4B0F2202609A6802F0030253
:1017C00042609A6802F0F00282609A6802F4E05285
:1017D000C2609B6803F4604310B4DB08054C0361EE
:1017E00023685DF8044B03F00F030B60704700BFE4
:1017F00000380240003C02402DE9F04F036813F02E
:10180000010683B004460BD0AF48A26BD0F88C1011
:10181000B2FA82F621F0C0610A43C0F88C20760942
:101820009A070BD5A849E06BD1F88C2022F0C05262
:1018300002430028C1F88C2008BF012613F00405DC
:1018400010D0A149256BD1F88C2022F440122A43F4
:10185000B5F5801FC1F88C2015BFB5FA85F50025B8
:101860006D0901261F070FD59748616BD0F88C20B2
:1018700022F440020A43B1F5800FC0F88C2000F03A
:101880005E81002908BF0125980600F107812368C1
:10189000DF0604D58D4B94F858201A60236818068B
:1018A00008D58948E26CD0F8941021F440010A432D
:1018B000C0F89420590608D58348A26CD0F894103B
:1018C00021F080610A43C0F89420DA050CD57E49E6
:1018D000606DD1F8942022F000620243B0F1006FF5
:1018E000C1F8942008BF01259F0508D57648626C91
:1018F000D0F8941021F080510A43C0F89420580584
:101900000BD4012E15D0B3F5006F12D0012D00F0CD
:101910001881002003B0BDE8F08F6B48216DD0F82E
:10192000942022F000520A43B1F1005FC0F89420E5
:10193000E7D1674B644E00221A60FFF77FFC074631
:1019400005E0FFF77BFCC01B022800F2A380336890
:101950001901F6D42168CA0740F15981A36B002B05
:1019600040F05581584F4FF4403ED7F884209EFAFE
:10197000AEF34FF0706CB3FA83F3D7F884009CFA9F
:10198000ACF847F6C079B8FA88F899FAA9F9B9FA23
:1019900089F99EFAAEFEBEFA8EFE9CFAACFC4FF0C0
:1019A000E04ABCFA8CFC9AFAAAFA6669BAFA8AFA90
:1019B00002F44032DA4006FA0AF3A668013206FA67
:1019C00009F900F07060666822F0004220FA08F021
:1019D00049EA030800FA0CF0531E48EA060603FA27
:1019E0000EF246EA00031343C7F884304F0704D5CC
:1019F000236BB3F5801F00F028810E0704D5636BBD
:101A0000B3F5800F00F02181480504D5236DB3F1B3
:101A1000005F00F072810A052CD547F6C07898FA6D
:101A2000A8F84FF4403CB8FA88F89CFAACFC4FF0A8
:101A3000706EBCFA8CFC9EFAAEFE4FF0E047BEFA28
:101A40008EFE97FAA7F7E268A36866682069616965
:101A5000B7FA87F75208013A02FA0CF203FA08F3D0
:101A60001343334300FA0EF00343B940164A1943B7
:101A7000C2F88410164B144E01221A60FFF7DEFBE9
:101A8000074633681B013FF541AFFFF7D7FBC01B8B
:101A90000228F6D9032003B0BDE8F08F0A4B0D4FA2
:101AA000002201921A6C42F080521A641B6C03F0FF
:101AB00080530193019B3B6843F480733B60FFF7C5
:101AC000BDFB80460EE000BF00380240E0114742F7
:101AD0006800474200700040FFF7B0FBC8EB000011
:101AE0000228D7D83B68D905F6D5BC490B6F13F44B
:101AF0004072236C03F4407011D090420FD00B6FF2
:101B0000B74A23F4407301270020176010600B6769
:101B10000B6FDA0700F18780236C03F44070B0F597
:101B2000407F00F0DF80AD498A6822F4F8128A60B5
:101B3000AA490A6FC3F30B0313430B67A7E60126F9
:101B4000A2E6A84BA54D00221A60FFF777FB0646D8
:101B500004E0FFF773FB801B02289BD82B689F00D3
:101B6000F7D4226850075AD4110737D5636BABBB43
:101B70009A4E4FF44031D6F8883091FAA1F047F6EA
:101B8000C077B0FA80F097FAA7F7B7FA87F791FA1B
:101B9000A1F14FF0706EB1FA81F19EFAAEFE03F43E
:101BA0004033E569BEFA8EFEC340606A0133BD4032
:101BB00023F00043A76900FA0EF0013B28438B4055
:101BC00038430343C6F88830D6F88C30E16A23F4F2
:101BD000F853013943EA0123C6F88C30D20504D505
:101BE000636DB3F1006F00F0CC807E4B7B4C012223
:101BF0001A60FFF723FB054605E0FFF71FFB401BBC
:101C000002283FF647AF23689B00F6D581E68B0795
:101C10007FF5ECAEE36B002B7FF4E8AEA2E6236B1E
:101C2000002BA5D0A0E70F46FFF708FB41F288384C
:101C3000814606E0FFF702FBC9EB000040453FF696
:101C400029AF3B6F9B07F5D566E7644E4FF44030F4
:101C5000D6F8843090FAA0FB4FF0E04CBBFA8BFB37
:101C6000D6F884209CFAACF847F6C07AB8FA88F81F
:101C70009AFAAAFABAFA8AFA90FAA0F04FF07069C2
:101C8000B0FA80FE99FAA9F9B9FA89F99CFAACFC84
:101C90002069A768BCFA8CFC03F4403323FA0BF3E9
:101CA00000FA09F90133606802F0E04207FA0AF726
:101CB00023F0004322FA08F247EA0907013B02FA3F
:101CC0000CF23843024303FA0EF31343C6F8843090
:101CD000D6F88C30A26A23F01F03013A1343C6F8EA
:101CE0008C3091E63D48826823F0704122F4F8126E
:101CF00021F440710A4382601AE7DFF8E0804FF474
:101D00004036D8F8843096FAA6FB4FF0E040BBFA94
:101D10008BFBD8F8842090FAA0FA47F6C079BAFA7B
:101D20008AFA99FAA9F9B9FA89F996FAA6F64FF05A
:101D3000706CB6FA86FE9CFAACFCBCFA8CFC90FA8D
:101D4000A0F6E068A768B6FA86F64008013803F402
:101D5000403300FA0EFE23FA0BF3606802F0E04213
:101D600007FA09F7013322FA0AF247EA0E075B0085
:101D7000B240074303FA0CF33A431343C8F88430E4
:101D800049E616484FF07062D0F8883092FAA2F710
:101D900047F6C071B7FA87F791FAA1F14FF4403EC8
:101DA000B1FA81F19EFAAEFEBEFA8EFE92FAA2F56B
:101DB000226AD4F81CC0A669B5FA85F45208013A23
:101DC00003F070630CFA01F102FA0EF2FB400A43D1
:101DD000A34032431343C0F8883006E7003802407E
:101DE000400E4742700047422DE9F0430368DA078E
:101DF00083B0044629D59B498A6802F00C02042A64
:101E000000F097808A6802F00C02082A00F08D80AA
:101E100094498A6802F00C020C2A00F00781924B68
:101E200022791A706368002B00F0DD80FFF706FA54
:101E30008C4D064605E0FFF701FA801BC82800F22A
:101E4000F1802B689803F6D523689A0733D5854A25
:101E5000916811F00C0F77D0916801F00C010829FE
:101E60006FD080498A6802F00C020C2A00F062816F
:101E7000E368002B00F0DF807C4B7A4D01221A6072
:101E8000FFF7DCF9064605E0FFF7D8F9801B0228CA
:101E900000F2C8802B68734A9807F5D51168F820BE
:101EA00090FAA0F02369B0FA80F021F0F8018340A5
:101EB0000B43136023681A0714D56369002B4ED0B7
:101EC0006B4B684D01221A60FFF7B8F9064605E032
:101ED000FFF7B4F9801B022800F2A4806B6F9F0704
:101EE000F6D5236859074AD4A269D2B15D4B9968E7
:101EF00001F00C0108292ED0022A5E4A4FF00001A1
:101F0000116000F0A9801C46FFF798F9054605E02E
:101F1000FFF794F9401B022800F2848023689B019C
:101F2000F6D4002003B0BDE8F0834A6857027FF57D
:101F30006FAF4C4A1268950387D56268002A84D136
:101F400009E0526857028CD4464A1268950758D562
:101F5000E268012A55D0012003B0BDE8F083444A6D
:101F6000404D1360FFF76AF9064604E0FFF766F993
:101F7000801B022856D86B6F9807F7D4B1E7394B0E
:101F80003D4D002201921A6C42F080521A641B6C83
:101F900003F080530193019B2B6843F480732B6003
:101FA000FFF74CF9064604E0FFF748F9801B0228CA
:101FB00038D82B68DA05F7D5304B227A1A70A36827
:101FC000002B00F0A680FFF739F9264D074641F2B5
:101FD000883604E0FFF732F9C01BB04222D82B6FDD
:101FE0009B07F7D580E7FFF729F91E4D064604E069
:101FF000FFF724F9801BC82814D82B689903F7D45D
:1020000022E7184DF820296890FAA0F02269B0FA6A
:1020100080F021F0F80182400A432A601A077FF518
:1020200061AF4AE7032003B0BDE8F0834A68560277
:102030007FF5F5AE7DE70D4A0A4D1360FFF7FEF818
:10204000064604E0FFF7FAF8801B0228EAD82B685E
:102050009907F7D423682EE71D46FFF7EFF80646E9
:1020600013E000BF0038024002380240000047423F
:10207000800E4742600047420070004070380240C6
:10208000FFF7DCF8801B0228CCD82B682C4A99017A
:10209000F6D447F6C07E9EFAAEFE4FF44037BEFA45
:1020A0008EFE97FAA7F74FF07065B7FA87F795FAA3
:1020B000A5F54FF0E049B5FA85F599FAA9F9A36AB3
:1020C000666AD4F82080D4F81CC0E06A216BB9FAA3
:1020D00089F45B0806FA0EF6013B48EA0C0E4EEA5C
:1020E0000606BB40A8403343A140034315480B43B9
:1020F0000121536001601446FFF7A0F8054604E093
:10210000FFF79CF8401B02288CD823689A01F7D56A
:1021100007E7FFF793F80A4D074641F2883605E0D6
:10212000FFF78CF8C01BB0423FF67CAF2B6F9807CF
:10213000F6D4D9E64A6856023FF59AAE04E700BFE6
:1021400000380240600047423449886800F00C00C3
:10215000082830B409D00C2834D0314B314A30BC77
:1021600004280CBF1846104670474A684D6802F0B4
:102170003F0447F6C0734A68680293FAA3F347F630
:10218000C07000EA02004ABF2549264AB1FBF4F2BA
:102190002249B3FA83F320FA03F058BFB2FBF4F2FA
:1021A00002FB00F34FF44032486892FAA2F200F4C6
:1021B0004030B2FA82F2D0400130400030BCB3FB74
:1021C000F0F070474A684D6802F03F0447F6C0736C
:1021D0004A68690293FAA3F347F6C07000EA020066
:1021E0004ABF0F490F4AB1FBF4F20C49B3FA83F32B
:1021F00020FA03F058BFB2FBF4F202FB00F34FF0F9
:10220000E042486892FAA2F200F0E040B2FA82F2AC
:1022100030BCD040B3FBF0F0704700BF0038024044
:1022200000127A000024F400704700BF0368012206
:10223000186A8A4020EA020010B41862196A0A4C2F
:102240000A43A3421A620AD0084A934207D01A6886
:102250005DF8044B42F0010200201A6070475A6C8E
:1022600042F400425A64F2E70000014000040140D9
:10227000364A0368904270B454D0B0F1804F30D0E9
:10228000A2F57C4290422CD002F58062904228D088
:1022900002F58062904224D002F57842904220D02C
:1022A00002F57052904230D002F5806290422CD0FC
:1022B00002F58062904228D0A2F59832904224D054
:1022C00002F58062904220D002F5806290421CD0DC
:1022D0008C680A6803600123C462826270BC436137
:1022E00070474A681A4C8E680D6823F070031343D8
:1022F000CA6823F440731343A0420360C662856238
:102300001DD00123436170BC7047CA688C6809689E
:1023100023F44073134303600123C462816270BCE1
:10232000436170474A68CC688E680D6823F070037B
:102330001A4322F4407222430260C66285620B692E
:1023400003630123436170BC704700BF000001407C
:1023500000040140C0B190F8393010B503F0FF021D
:10236000044663B12146022351F8040B84F8393046
:10237000FFF77EFF012384F83930002010BD80F87C
:102380003820FFF751FFEDE7012070472DE9F047B6
:102390000568C7682B69C669D0F810C082684169B2
:1023A00023F4405E4EEA0707044680692F61EB681C
:1023B0004CEA020223F416430A4323F00C0332438F
:1023C0001343EB606B6923F440730343B6F5004F8E
:1023D0006B61A34B5DD09D4200F0F68003F58063F6
:1023E0009D4200F0F180FFF7B5F96668DFF874826E
:1023F00000EB800000EB8000B600B0FBF6F6FFF7C4
:10240000A9F9676800EB800000EB8000BF00B0FB1B
:10241000F7F7FFF79FF9626800EB8000920000EB8E
:102420008000B0FBF2F0A8FB003040094FF06409D7
:10243000A8FB063609FB10731B013233A8FB0323EC
:102440005B0903F0F007FFF785F9636800EB800094
:102450009A0000EB8000B0FBF2FAFFF77BF96268AC
:1024600000EB8000920000EB8000B0FBF2F0A8FBD4
:10247000003076094009360109FB10A21201323200
:10248000A8FB0232C2F34312BB183344AB60BDE871
:10249000F0879D4259D003F580639D4255D0FFF7E8
:1024A00059F96768DFF8BC8100EB800000EB800021
:1024B0007F00B0FBF7F7FFF74DF9666800EB80008F
:1024C00000EB80007600B0FBF6F6FFF743F9A8FBBF
:1024D0000737636800EB800000EB80005B00B0FB17
:1024E000F3F3A8FB03235B094FF0640909FB1366B0
:1024F000F600FFF72FF93236A8FB063663687F092E
:10250000360900EB800000EB80005A003F0106F422
:10251000F876B0FBF2FAFFF71DF9616800EB800076
:1025200000EB80004900B0FBF1F1A8FB0131490943
:1025300009FB11A2D2003232A8FB0223C3F34213DB
:102540003B441E44AE60BDE8F087FFF71BF96768A7
:10255000DFF8108100EB800000EB80007F00B0FB13
:10256000F7F7FFF70FF9666800EB800000EB8000DB
:102570007600B0FBF6F6FFF705F9A8FB07376368AE
:1025800000EB800000EB80005B00B0FBF3F3A8FBE6
:1025900003235B094FF0640909FB1366F600FFF79C
:1025A000F1F83236A8FB063663687F09360900EB7E
:1025B00080005A003F0106F4F87600EB8000B0FB83
:1025C000F2FAFFF7DFF8A8E7FFF7DCF86668DFF854
:1025D000948000EB800000EB8000B600B0FBF6F6C4
:1025E000FFF7D0F8676800EB800000EB8000BF00C9
:1025F000B0FBF7F7FFF7C6F8626800EB80009200C7
:1026000000EB8000B0FBF2F0A8FB0030A8FB063620
:102610004FF06409430909FB13731B013233A8FB14
:1026200003235B0903F0F007FFF7ACF8636800EBE6
:1026300080009A0000EB8000B0FBF2FAFFF7A2F8EE
:10264000616800EB800000EB80008900B0FBF1F1D5
:10265000A8FB013176094909360109FB11A20DE7F2
:10266000001001401F85EB51704700BF60B338B5C3
:1026700090F83930044603F0FF0203B322682423A4
:1026800084F83930D36823F40053D3602046FFF731
:102690007DFE23681A6922F490421A615A6922F079
:1026A0002A025A61DA680025202142F40052DA60D9
:1026B0002846E56384F8391084F83A1038BD80F86C
:1026C0003820FFF7D1FFD9E7012070471848836809
:1026D00003F00C03042B29D0082B0AD0154B144A05
:1026E000154892681549C2F30312825CD3400B600F
:1026F00070474368416813F4800F436818BF10485F
:1027000001F03F020CBF0B49B0FBF2F1C3F3881399
:1027100008BFB1FBF2F101FB03F2054B5B68C3F3A9
:10272000014301335B00B2FBF3F3D8E7044BD6E778
:10273000003802400024F400E4130108D001002016
:1027400000127A002DE9F041ACB0324A324B00243D
:102750000194116C41F080511164126C02F08052AE
:102760000192019A02941A6842F440421A601B686E
:1027700003F4404302930123029A0893074600B1F1
:102780000523022409934FF4800608254FF4B47200
:10279000072308A80E94129414940F961095119282
:1027A0001393FFF721FB18B100202CB0BDE8F08196
:1027B000FEF778FE80460028F6D14FF4C0714FF442
:1027C00080724FF0006315A81B951D951C91159202
:1027D0002A930F25FFF710F84FF4A0524FF48053BF
:1027E00003A8052106920494CDF81480039507935D
:1027F000FEF7FAFE02460028D6D131461FB1FEF799
:102800009FFE0120D1E74FF08062FEF799FE012084
:10281000CBE700BF0038024000700040F0B595B033
:102820000024244A0094116C234B41F08051116420
:10283000126C02F080520092009A01941A6842F4DD
:1028400040421A601B68089403F440430193032636
:10285000102302254FF4B4710622012707A807961A
:10286000DDF804E00E940A970B930F930D951195E4
:1028700010911292FFF7B8FA064610B1204615B033
:10288000F0BD4FF4A0524FF4805305210F2402A84D
:1028900003950496029405920693FEF7A5FE014661
:1028A00010B1304615B0F0BD0246FEF749FE38467D
:1028B00015B0F0BD003802400070004008B501209E
:1028C000FFF740FF18B9FFF7A9FF00B9FEE70120A5
:1028D00000214FF0C062BDE80840FEF731BE00BFE6
:1028E000174A1848D2F8883070B543F47003164C74
:1028F000C2F888302368154E154D002143F00103BE
:102900002360A160236823F0847323F48033236061
:10291000666023684FF0006623F480232360E16043
:1029200096600560FEF768FCFFF7C8FF236A43F076
:1029300008032362236A23F00803236270BD00BFEB
:1029400000ED00E0D00100200038024010300024EB
:1029500080A812012DE9F04F0F4687B004460846C3
:102960008A49164600F0BEFC89490546304600F00B
:10297000B9FC0146284600F0A3FCB0F1FF3F8046B9
:1029800000F0FE80834B984200F0E38023D9824B15
:10299000984200F0C88003F58063984200F09D8063
:1029A000A3F54443984234D17C4B1A6A42F4801216
:1029B0001A621A6A002122F480121A6204911A6CB7
:1029C00042F480121A641B6C03F4801304930423F2
:1029D000049A63601DE0A3F50063984266D003F596
:1029E0008063984215D16D4B1A6A42F480221A62B4
:1029F0001A6A002122F480221A6202911A6C42F4AF
:102A000080221A641B6C03F480230293029A02232F
:102A1000636038465D4900F031FC30465C4900F0A7
:102A20002DFC7A1C03D03846012100F0C3FD731C35
:102A300003D03046012100F0BDFD6168DFF87891D8
:102A40006676890109EB01052A4600234FF41650EA
:102A50002776A060E3602361636105F1100E42F800
:102A6000083F013649F801806860EB61EB84EB8533
:102A700053609360CEF8083046D001370CBF042372
:102A80000C23CEF80430FFF721FE2846FFF7EEFDB9
:102A900010B1434800F0E6FB6368424A9B0159F8D5
:102AA0000330934234D007B0BDE8F08F3B4B1A6A35
:102AB00042F400321A621A6A002122F400321A62C9
:102AC00001911A6C42F400321A641B6C03F4003357
:102AD00001930123019A63609BE7304B5A6A42F0ED
:102AE00020025A625A6A002122F020025A6205919D
:102AF0005A6C42F020025A645B6C03F02003059389
:102B0000059B0523636084E70823CEF80430BAE709
:102B1000254B264821461C2201241C6003F0E8FCBA
:102B200007B0BDE8F08F1D4B5A6A42F010025A629E
:102B30005A6A002122F010025A6200915A6C42F047
:102B400010025A645B6C616003F010030093009BF9
:102B50005FE7124B1A6A42F400221A621A6A0021D5
:102B600022F400221A6203911A6C42F400221A64C1
:102B70001B6C03F4002303930323039A636048E769
:102B80000B480C49CC2200F0E7FA42E7081701088D
:102B90009C160108004C0040001001400038024023
:102BA00074140108004400409C0D00203C110020DA
:102BB000F413010810140108A00D002008B54268A4
:102BC000074B816003EB821318465960FFF74EFDF7
:102BD00000B908BD0348BDE8084000F043BB00BF92
:102BE000A00D00207414010810B4044B446804487C
:102BF000196040F824205DF8044B7047980D0020C0
:102C0000780D00204368054A9B01D25813689B0643
:102C1000FCD55068C0F30800704700BFA00D00202D
:102C20004368054A9B01D25813681B06FCD5C1F3C3
:102C300008015160704700BFA00D00204368034A9F
:102C40009B01D3581868C0F340107047A00D0020B6
:102C5000054B186800B17047044A0549116001220C
:102C60001A60FEF759B800BFDC0F0020A00F00204B
:102C7000000C004008B5064B186830B9054A0649F3
:102C8000116001221A60FEF747F8034B586A08BD2D
:102C9000DC0F0020A00F0020000C0040034B1B683D
:102CA0005863DA6842F00202DA607047A00F002031
:102CB000034B1A68D36823F00203D360704700BF48
:102CC000A00F0020024B1B686FF002021A617047D0
:102CD000A00F002038B50023036043600A782F2A34
:102CE000044601D0204638BD4A78002AFAD0481C54
:102CF00020604D782F2D13D085B1034600E06AB1D6
:102D00005D1A013323601A782F2AF8D1294601333E
:102D1000236000F0BDFC6060204638BD2946F8E71E
:102D200019460346F3E700BF00687047436843B1A4
:102D300010B50446184600F0C9FC012803D16068AC
:102D400010BD00207047002010BD00BF406830B1AA
:102D500008B500F0BBFCB0FA80F0400908BD704730
:102D600043684BB110B50446184600F0AFFC28B9D3
:102D7000606818B1043810BD00207047002010BDF5
:102D80004068003018BF0120704700BF704700BF87
:102D9000A0F14400FFF7FABF704700BFA0F1440064
:102DA000FFF7FABF00F0B8B8A0F14400FFF7FABF90
:102DB00000F0B6B8A0F14400FFF7FABF38B50446FA
:102DC0001D4600F02BF8294604F1440000F026F9D6
:102DD000054B03F1080103F12802643321606264AA
:102DE000A364204638BD00BF90140108704700BF9F
:102DF00000EB0112D36A23B1023100EB0111906A9A
:102E000018477047704700BF704700BF0B681847EE
:102E100010B5044600F0BAFC204610BD2DE9F04381
:102E200083B002AF002547F8045D1B4B03600446E6
:102E30008946904645608560C5600561456185614C
:102E40000577457739460422203003F051FB019B7A
:102E5000124E0195AB4214BF33462B463946E3620E
:102E600004F13000042203F043FB019BAB4208BF96
:102E70002E464FF41653251D4946424623642846E4
:102E8000E663FFF767FD284622460549FFF7ACFEDB
:102E9000204603B0BDE8F083081501080D2E000898
:102EA000F12D000803680C4A1B68934270B5044674
:102EB0000D460AD1201D2946FFF780FE2368074AE8
:102EC0005B682564934202D170BD9847F2E72046C3
:102ED000BDE87040184700BF052E0008092E000805
:102EE00038B503680A4A1B68934204460AD1201D7C
:102EF000FFF7A4FE2368074A5B689342054603D1A7
:102F0000284638BD9847F2E720469847284638BDFE
:102F1000052E0008092E00080430FFF773BE00BF1D
:102F200010B504300C46FFF77BFE204610BD00BFF5
:102F30000020704700207047002070470020704735
:102F400000207047F8B50368DFF860E05C6A7445FC
:102F500005460F4601EB020620D1B74221D03C4680
:102F600002E0A6420FD02B68DB6A14F8011B28464A
:102F700098470130F5D12B68E71B9B6A0A4A9342B8
:102F800008D13846F8BD2B68074A9B6A9342A6EBE6
:102F90000707F6D0284698473846F8BDA0472B6863
:102FA000DBE70027E9E700BFFD0D0008F90D000889
:102FB000F8B50368DFF860E05C6A744505460F46C3
:102FC00001EB020620D1B74221D03C4604E004F8D0
:102FD000010BA6420DD02B681B6B28469847431C5B
:102FE000F5D12B68E71B9B6A0A4A934208D1384601
:102FF000F8BD2B68074A9B6A9342A6EB0707F6D0F9
:10300000284698473846F8BDA0472B68DBE70027DD
:10301000E9E700BFFD0D0008F90D000810B584B008
:10302000044600F061FB0B4B0B4903F10800002242
:10303000443384E80900626101A8224603F086FF58
:10304000064901A802F0A2F96061FEF78FF8204658
:1030500004B010BD18150108C41301086415010857
:1030600010B5074B03F108024433044680E80C0016
:10307000406901F06FFF204600F04AFB204610BD7A
:103080001815010838B503680D4A5B6A9342044677
:103090000D460ED1606902F01FF82846616902F002
:1030A0007DF92368074A9B6A9342054603D1284667
:1030B00038BD9847EEE720469847284638BD00BF00
:1030C000F90D0008FD0D000838B503680C4A5B6A6D
:1030D000934204460DD1606901F0FEFF6069FEF77E
:1030E00049F82368074A9B6A9342054603D128465C
:1030F00038BD9847EFE720469847284638BD00BFBF
:10310000F90D0008FD0D00080EB40368104A5B6A53
:1031100030B5934282B0044615D106AB6069019385
:1031200001F0DAFF019A6069059909F04FFA236806
:10313000084A9B6A9342054607D1284602B0BDE87B
:10314000304003B070479847E7E720469847F4E7D8
:10315000F90D0008FD0D000870B506460D46144631
:1031600000F00CF831462A4623460348FDF77EFD61
:10317000BDE87040FDF722BD6815010838B5EFF3D2
:10318000108505F0010572B60F4C236813B90F4B7B
:10319000EAB21A70236801330FD0236803B11DB15E
:1031A00023680133236038BD09480A493A22FFF7F2
:1031B000D3FF23680133236038BD07480549362211
:1031C000FFF7CAFFE9E700BFE00F0020E40F00208F
:1031D00004160108C41501089C15010810B50B4C14
:1031E000236863B1EFF31083DB0709D52368013B44
:1031F000236023681BB9064B1B7803B962B610BD68
:10320000044805494B22FFF7A7FFEFE7E00F002036
:10321000E40F002004160108C415010838B50D4656
:10322000044600F0B9F8013511D094F900300133AB
:103230000ED06368E2681B0420461360012100F091
:10324000C5F820460021BDE8384000F0BBB838BDC5
:10325000024803493422FFF77FFFEAE7EC12010836
:10326000041301080FB400B583B004A951F8040B8E
:103270000191FDF7D1FC012001F01AFE431C10B5AD
:10328000044619D091F90030581C04D10FE011F90F
:103290000C3F5A1C0BD09C42F9D12046896800F0A3
:1032A0005BF920460021BDE8104000F083B90348D7
:1032B000BDE81040FFF7D6BF10BD00BF18160108CB
:1032C00088420AD0421C09D0013106D008B5044812
:1032D000FFF7C8FF4FF0FF3008BD70470846704742
:1032E0002C160108421C0FD008B591F900305A1C69
:1032F00004D10AE011F90C3F5A1C06D09842F9D1CA
:103300004868411C01D008BD70470348FFF7AAFF79
:103310004FF0FF30F7E700BF40160108014800F00A
:1033200009BA00BF9416010838B50546FFF7A2FC9C
:103330000446FFF79FFC001BA842FAD338BD00BF2C
:1033400007EE100ADFED047A67EE277AFDEEE77AE2
:1033500017EE900AFFF7E8BF002474494FF47A7320
:1033600003FB00F0FFF7E0BF431C10B5044608D094
:103370002046002100F0F0F804F00F040120A040E6
:1033800010BD034803492722FFF7E6FEF0E700BF20
:10339000741701088817010870B505464B1C0C46C8
:1033A00029700DD0C1F3031000F030F80646204616
:1033B000FFF7DAFF06F1100318366860AB60EE60C5
:1033C00070BD00BF90F9000000F0F4B838B50546B4
:1033D00090F90000431C0C460BD0012C04D00021B6
:1033E000BDE8384000F0B8B82146BDE8384000F0EC
:1033F000B3B8044804494622FFF7AEFE95F9000031
:10340000EBE700BFEC1201088817010800B589B08E
:10341000072800F28680DFE800F014243444546466
:103420007404434B4348002207921A6B42F0800217
:103430001A631B6B03F080030793079B09B05DF8C9
:1034400004FB3B4B3C48002200921A6B42F0010205
:103450001A631B6B03F001030093009B09B05DF836
:1034600004FB334B3548002201921A6B42F00202F2
:103470001A631B6B03F002030193019B09B05DF813
:1034800004FB2B4B2E48002202921A6B42F00402DE
:103490001A631B6B03F004030293029B09B05DF8EF
:1034A00004FB234B2748002203921A6B42F00802C8
:1034B0001A631B6B03F008030393039B09B05DF8C9
:1034C00004FB1B4B2048002204921A6B42F01002AE
:1034D0001A631B6B03F010030493049B09B05DF89F
:1034E00004FB134B1948002205921A6B42F020028C
:1034F0001A631B6B03F020030593059B09B05DF86D
:1035000004FB0B4B1248002206921A6B42F0400259
:103510001A631B6B03F040030693069B09B05DF82A
:1035200004FB0C48FFF79EFE002009B05DF804FB89
:1035300000380240001C024000000240000402402B
:1035400000080240000C024000100240001402403B
:10355000001802401C18010830B5431C87B005460E
:103560000C461BD0C5F30310FFF750FF05F00F0505
:1035700004F00F010C4A0123AB40019352F8215093
:103580000295C4F302120323C4F3C31401A90392E6
:1035900005940493FDF76CFE07B030BD0348044961
:1035A0008122FFF7D9FDDDE7E8170108741701084C
:1035B0004018010838B5431C04460D4614D0C4F326
:1035C0000310FFF723FF04F00F04C2686400032315
:1035D000A34022EA0303C360022DC3688CBF002509
:1035E000A5401D43C56038BD02480349A622FFF728
:1035F000B3FDE4E774170108401801088368094A1D
:10360000026053B1084B1A68824201D106E01A46A3
:1036100053688342FBD143685360704742681A6025
:10362000704700BFA8180108F00F002083680C4AFB
:1036300010B50446026053B10A4B1A68904201D19A
:103640000AE01A4653689C42FBD1636853602046E7
:1036500000F09CF8204610BD42681A60F7E700BFF2
:10366000A8180108F00F002010B40023064C0273C4
:1036700081600460436019B1044B1A6842601860AD
:103680005DF8044B704700BFA8180108F00F002038
:103690000D4B70B51C6806460D4614B912E06468FF
:1036A00084B1A36831462A461846002BF7D004F0AF
:1036B000B5F80028F3D1A06804F042F8A842EED192
:1036C000204670BD002070BDF00F0020007B7047C9
:1036D00002480349034A00F053B800BFF40F00202A
:1036E000F50D0008C801002010B5074B0446002264
:1036F00040F8043BFFF7B8FF044B03F108023C33EA
:1037000084E80C00204610BD98130108B018010889
:1037100010B5074B044603F108023C33226040F821
:10372000043FFFF76BFF2046FDF7AAFB204610BDC4
:10373000B0180108036870B5DB68054698476B68E8
:103740005B6883B12A681C6853689847201A002870
:103750006A680DDC50681168836853600029F0D0F6
:1037600040688847EBE72B68BDE870409B681847C6
:103770002B6852681B691068BDE87040184700BF8D
:103780000B460146184601F087BB00BF02F058BB4C
:1037900010B5002814BF04460124204602F048FB5F
:1037A00000B110BD00F086F908B18047F5E70420AC
:1037B00000F0A2F8024B0360024A034900F0C4FA89
:1037C000FC180108D537000808190108004870479F
:1037D0001419010810B5034B0360044600F012F8F9
:1037E000204610BDFC18010810B5054B03600446C7
:1037F00000F008F82046FFF7C9FF204610BD00BFC3
:10380000FC180108704700BF704700BF00487047B0
:103810009819010810B50446FFF7B8FF204610BDFF
:10382000F0B41B4C50F8087C6168A0F10806C9B1DF
:10383000F519A9421BD04A682AB3954203D322E066
:103840009D4205D21A4653680C1D1146002BF7D134
:1038500011685518AE4213D040F8043C23685E60EE
:10386000F0BC704740F8041C6660F0BC70470B6801
:103870004A6840F8042C1F4440F8087C6660EFE773
:1038800039441160ECE7134604340A46E0E700BF10
:10389000F80F002030B4174C00F10803072B6368C1
:1038A00086BF00F10F0121F007010821EBB11A6872
:1038B000914204D81BE002688A4205D20346586848
:1038C0000028F8D130BC70470433521A072A09D9AE
:1038D0004418456865604250186801601C600830F3
:1038E00030BC704742681A60F9E71846EAE71846A4
:1038F000231DEAE7F80F002038B500F180052846BF
:1039000002F096FA044638B180220021204602F0E7
:10391000EDFE04F1800038BD2846FFF7BBFF0446EA
:103920000028F1D100F0CEFD064A93688038984215
:1039300005D9D2681344984201D2FFF771BF02F053
:103940007FBA00BFF80F002038B5084C4FF41E6551
:103950002846E56002F06CFAA06020B100236060A8
:103960000560436038BDE060606038BDF80F00203E
:1039700070B5036884B000249E6900941023154636
:10398000029312688DF804406B460394B0479DF88B
:10399000043003F00603062B03BF009B2B600120BD
:1039A000204604B070BD00BF009890420CBF0620B6
:1039B0000120704710B5034B0360044600F0AAFDD8
:1039C000204610BD001A010810B5054B03600446DF
:1039D00000F0A0FD2046FFF7D9FE204610BD00BF35
:1039E000001A010838B515461C4600F097FD20B1B5
:1039F000082206232560E260237138BDF0B583B04C
:103A00001746089D0A990B9C8D4206460BD0194615
:103A1000304600F083FD18B1012325602771A371A2
:103A2000002003B0F0BD0999019300F077FD18B1B3
:103A30000020677103B0F0BD019BE8E72DE9F0417C
:103A400017461C4606460D4600F068FD08B9032CD3
:103A500001D9BDE8F0812B683A46314628465B69BA
:103A6000BDE8F041184700BF0868B0F1004F08B545
:103A70001BD290420ED9520090420BD2B2F1004FAD
:103A80000DD36FF000430B604FF00040BDE80840DD
:103A9000FFF77EBE0130BDE80840FFF779BE0A603F
:103AA000501CBDE80840FFF773BE014800F02CFE33
:103AB000541A0108024B1868BFF35F8F704700BFAC
:103AC0000810002038B5044600F0E4FC22780368B2
:103AD000472AA4F1200105D0002B31D11C460160FA
:103AE000204638BD62784E2AF6D1A278552AF3D105
:103AF000E278432AF0D12279432AEDD162792B2A48
:103B0000EAD1A2792B2AE7D1E279012AE4D854F844
:103B10000C2C002A11DB0132456844F80C2C8B4236
:103B200005F1FF3242601CBF44F8103C01602046A2
:103B3000646A0CF001FD204638BDC2F10102EBE7DA
:103B400000F0C0FC013101D000F0FEFC00F09CFF51
:103B500008B500F09BFC0246006800283DD090F8B4
:103B60002030472B06D0002313602030BDE80840EA
:103B70000CF0E4BC90F821304E2BF4D190F82230B8
:103B8000552BF0D190F82330432BECD190F8243012
:103B9000432BE8D190F825302B2BE4D190F8263038
:103BA0002B2BE0D190F82730012BDCD84369002B78
:103BB00005DB013B08D05A1C0DD0436108BD013321
:103BC000FBD101691160F8E7036913602030BDE89B
:103BD00008400CF0B3BC00F075FC08BD10B5034BF9
:103BE00003600446FFF7E6FE204610BD3C1C0108BA
:103BF00010B5054B03600446FFF7DCFE2046FFF7D7
:103C0000C5FD204610BD00BF3C1C01082DE9F04F4A
:103C100081B00E4619461F46914683460A9CDDF840
:103C20002CA0DDF830800D9D00F078FC70B1002EE6
:103C30002C6085F804901FDB3444A0450CBF06249B
:103C40000124AC71002001B0BDE8F08F444518D0CC
:103C5000DBF80800D0F800E00D95CDF83080CDF805
:103C60002CA00A94DEF81C403B464A463146A44646
:103C700001B0BDE8F04F60470236E3D10123AB71DC
:103C8000E0E75146584600F049FC0028E0D000200B
:103C900085F8059001B0BDE8F08F00BF70B582B027
:103CA0000D46069C9442064609D0B0680668069404
:103CB000346A2946A44602B0BDE870406047194600
:103CC0000192009300F02AFC009B019A0028ECD09E
:103CD000062002B070BD00BF2DE9F04107460C463A
:103CE00015461E46FFF77EFE08B1BDE8F081B868B4
:103CF00007682146BC6933462A46A446BDE8F04120
:103D0000604700BF012810B51AD8BFF35F8FA1F13B
:103D1000280353E8002F013A43E800200028F8D197
:103D2000BFF35F8F5AB951F81C3C01F158040BB135
:103D3000204698472046BDE81040FFF7F5BD10BD6E
:103D400051F8140C00F0AAFBF8B504460F461646CD
:103D500000F0A0FB436801252B44436044F8787CC5
:103D600044F8746C44F8805C00F0CCFB44F8700CB0
:103D700000F0C0FB472343224FF04E0E104904F8D9
:103D8000583CA4F158052B235527002644F86C0C09
:103D900004F857EC44F8501C04F8552C04F8542C43
:103DA00004F8533C04F8523C04F8567C04F8516C77
:103DB00028460CF067FF2846FFF784FE00F082FBE0
:103DC000053D000810B500F065FB4268036801324C
:103DD00042606BB193F82020472A0BD0002202608A
:103DE00003F1200420460CF071FF2046FFF76AFE25
:103DF00000F068FB93F821204E2AEFD193F822209F
:103E0000552AEBD193F82320432AE7D193F82420B5
:103E1000432AE3D193F825202B2ADFD193F82620DB
:103E20002B2ADBD193F82720012AD7D85A6952428E
:103E30005A61D5E75028F8B554D000F00F040C2C87
:103E40004ED8DFE804F007394907174D4D4D4D1F97
:103E50001B071700154655F8044B44B100F07006D7
:103E6000102E18BF0A461444020648BF24681C607E
:103E70002846F8BD154655F8084BEEE7154635F9C6
:103E8000024BEAE700242746154615F801EB0EF031
:103E90007F06BE401EF0800F44EA060407F10707C4
:103EA000F3D11F2FD9D81EF0400FD6D04FF0FF36D8
:103EB00006FA07F73C43D1E700242746154615F8D4
:103EC00001EB0EF07F06BE401EF0800F44EA0604B0
:103ED00007F10707F3D1C0E7154635F8024BBCE7F9
:103EE00000F0D2FF033222F0030555F8044B1C60AA
:103EF0002846F8BDFF2815D008B500F07003202B28
:103F000012D00AD9402B14D0502B17D0302B07D108
:103F10000846BDE808400DF0B5B87BB1102B0DD0B8
:103F200000F0B2FF002070470846BDE808400DF0E1
:103F3000A5B80846BDE808400DF090B8002008BDBF
:103F4000F8B50C4615460746002844D00DF086F813
:103F500028602678FF2E04F1010432D0394630461D
:103F6000FFF7C8FF224601462B1D3046FFF762FFD0
:103F70000446601C23782B75FF2B29D010230024C6
:103F80002B75224610F8011B01F07F0393400906B0
:103F900044EA030402F10702F4D40444EC60037819
:103FA0006B7500240130224610F8011B01F07F03DD
:103FB00093401C430B0602F10702F5D404442C6124
:103FC000F8BD686023782B75FF2B04F10100D5D173
:103FD0000023EB60E3E7BBE72DE9F04F00F00304BB
:103FE00097B00023012C894690460A9321D00ED326
:103FF000022C0AD1414648460DF01CF8002800F07A
:10400000D480092017B0BDE8F08F00F03DFF00F02C
:10401000080000F0FF030028ECD116AA404642F841
:104020002C1D194600920C220CF0B4FA01230493C3
:1040300013E000F0080000F0FF04002800F0B98051
:1040400016AA44F0020442F82C1DE4B2009219466C
:104050000C22404604940CF09DFA40460DF004F802
:1040600005900028C6D010AB1A4605990693404625
:10407000FFF766FF414604469DF85400FFF73AFFFC
:104080000DF13C0B0023129019460F22CDF800B021
:1040900040460CF059FA0F9B149A23F00103944206
:1040A00003F1FF3643D20DF1340A0EAF9DF855509F
:1040B00000212846FFF71EFF2246534601462846A8
:1040C000FFF7B8FE9DF85540054600212046FFF752
:1040D00011FF2A463B4601462046FFF7ABFE9DF8FE
:1040E0005540054600212046FFF704FF2A460146B9
:1040F0005B462046FFF79EFE04460020024614F869
:10410000011B01F07F0393400D0640EA030002F11A
:104110000702F4D4109A0D9B13449E4207D30E9AC3
:1041200013449E42C0F0BA80149BA342BED800251F
:1041300003950124049BDB0756D4049B190740F127
:10414000A880012C00F09D810DF1340A0EAF16A954
:10415000002341F8289D1A460091404619460CF06C
:1041600019FA002319460122CDF800A040460D950A
:104170000CF010FA002319460F22009740460CF06D
:10418000E3F90E9B039A009703F001050023154302
:10419000404619460F220E950CF0FCF9022C00F057
:1041A000F580072017B0BDE8F08F082017B0BDE8F4
:1041B000F08F10AB009306930D2223462146404614
:1041C000D9F820500CF0C0F9109B9D4224D016AABB
:1041D000234642F82C9D2146009240460C220CF0CA
:1041E000D9F90223049338E70EAF002319460D22B4
:1041F000009740460A9C0CF0A7F9059A0E9BC9F857
:104200002C20039AC9F82440C9F82850C9F8302056
:10421000C9F820300620F5E616AA234642F82C9D60
:104220002146009240460C220CF0B4F9D9F8303007
:10423000039383B3D9F82C30D9F82850059303247D
:104240000DF1340A0EAF002D81DA069A0599404629
:10425000FFF776FE41469DF85400FFF74BFEAA009B
:1042600082F00302D243139E1290B358164433B126
:104270003246002352F8041F01330029FAD10422E8
:10428000C9F82830C9F82C00C9F83460C9F83020C2
:104290005DE7012CD4D1484600F0E6FB0F9B002BD4
:1042A0003FF4A8AE119A13440393002800F0D6807F
:1042B000149C01380444002B3FF49CAE002C00F009
:1042C000D180049B13F00803099300F0BD804722BE
:1042D0004E2389F8002089F801305522432389F8BC
:1042E000022089F8033046224F2389F8042089F8F8
:1042F00005305222002389F8062089F80730002370
:104300000793CDF8208000252A4614F8011B01F000
:104310007F039340080645EA030502F10702F4D43F
:104320001F2A05D8490603D5012393405B421D434C
:1043300000263246204610F8011B01F07F0393400F
:104340001E430B0602F10702F5D41F2A05D84806C2
:1043500003D5012393405B421E43002D3DD03FDD3A
:104360009DF85400FF286DD000F00703042B3FF6A2
:104370004CAE01A252F823F0BF4300080B400008E6
:10438000B9430008BF43000897430008484600F0BF
:1043900039F9072036E6EB005B42139A12991A446A
:1043A0003B46FFF747FD0E9999B1B9F1000F09D1CE
:1043B000002E5ED03444A6E76B005B42EDE7AB0015
:1043C0005B42EAE70AAB0022484600F0C3F8002847
:1043D000EED0DDF820800324ACE601230793E7E765
:1043E000B9F1000F01D0099B93B16B1CC3EB837330
:1043F000139A52F82330002BDAD1049BDDF8208089
:10440000DA073FF5F2AE099B002B3CD000F068F8CC
:1044100005F10108C8EB8873139A0A9852F8231023
:104420000F9002EB830821B9E7E758F8041F002931
:10443000E3D041445B460022484600F08BF8002858
:10444000F3D0B5E70023A8E799F80730012B0CBF9C
:1044500059F8203C09F158030A9350E7039B002BBD
:104460003FF4C8AD049B13F001057FF4C3AD0224F3
:1044700063E6079BDDF82080002BF3D1BAE5FFF758
:1044800021FB00F01FF80324DDE600BF0048704761
:104490000C100020004870470C10002008B5804721
:1044A00000F0F2FCFFF70EFB00F0EEFC0D460446B8
:1044B000FFF74EFB013501D000F046F8204600F032
:1044C000E3FA00BF08B5034B1868BFF35F8FFFF72F
:1044D000E5FF00BFDC01002008B58047FFF7F2FFD1
:1044E00008B5034B1868BFF35F8FFFF7F5FF00BFF8
:1044F000E0010020024B1868BFF35F8F704700BFD8
:10450000DC010020024B1868BFF35F8F704700BFCB
:10451000E0010020704700BF00207047814211D0A9
:1045200008B5406803782A2B0AD049680B782A2BF3
:1045300008BF013102F0A8FDB0FA80F0400908BDC3
:10454000002008BD012070471EB400F08DF81EBC8D
:104550000CF0AAFBF0B50278472A83B00E461F463E
:104560001AD00023254C0193236820469B68984766
:1045700080B1019B1B6801930225336821463046B8
:104580001C6901AA0123A04710B1019B3B6028468A
:1045900003B0F0BD0125F0E743784E2BE1D18378DD
:1045A000552BDED1C378432B19D0C378432BD8D1F8
:1045B0000379432BD5D143792B2BD2D183792B2B64
:1045C000CFD1C379012BCCD804D050F8204C58302F
:1045D0000190C9E750F8200C50F8784CF8E70379BF
:1045E000462BE2D143794F2BDFD18379522BDCD19B
:1045F000C379002BD9D10193014CB5E7AC1901085F
:104600005419010810B50446FFF744FF2378472BDF
:10461000A4F1200204D0836823BB8260012010BD76
:1046200063784E2BF7D1A378552BF4D1E378432B45
:10463000F1D12379432BEED163792B2BEBD1A379E5
:104640002B2BE8D1E379012BE5D854F8043C013356
:10465000012B44F8043CE1D1836844F8083C8260B3
:10466000012010BDFFF72EFF08B5FFF713FF836889
:1046700083B393F82020472A04D00022826003F1FC
:10468000200008BD93F821204E2AF6D193F822206D
:10469000552AF2D193F82320432AEED193F824200F
:1046A000432AEAD193F825202B2AE6D193F8262035
:1046B0002B2AE2D193F82720012ADED8DA69013AC1
:1046C000DA61002ADBD19A69826000229A6103F1E3
:1046D000200008BDFFF7F6FE38B505460820FFF7B5
:1046E0000BF92946044600F027F82046044A0549FC
:1046F000FFF72AFB2046FFF717F9FFF725FF00BF5A
:10470000754B0008601E010838B505460820FFF704
:10471000F3F82946044600F023F82046044A0549E8
:10472000FFF712FB2046FFF7FFF8FFF70DFF00BF72
:10473000C94B0008A41E010810B5084B82B00446FE
:1047400001AA40F8043B00F095F8204602B010BDE5
:104750002046FFF757F8FFF7F7FE00BF841E010859
:1047600010B50446FFF7E8FF014B2360204610BD5B
:10477000B81E010810B582B001AB044600F06CF819
:10478000204602B010BD00BF134B984210B51FD891
:104790008842044614D94A00904238BF144604F1B6
:1047A0001D02B2F5805F04F10D000BD9A14209D2C0
:1047B00004F58054C2F30B02A41A9C4228BF1C4685
:1047C00004F10D00FEF7E4FF00224460826010BD9A
:1047D0000248FFF799FF00BFFCFFFF3FAC1C010838
:1047E00070B50C1A064600212046FFF7CDFF012CBC
:1047F000054600F10C0305D084B90C4A954206D158
:10480000184670BD32780273084A9542F8D02919CB
:1048100000222C60AA600A73184670BD1846314603
:10482000224601F065FE0346E7E700BF18100020AE
:10483000FEF7ACBF884202D018B1FFF7D1BF0448E1
:1048400070470029F9D008B50248FFF745FF00BFBF
:1048500024100020DC1C010838B50D460446114424
:1048600028461A464FF00003FFF7E4FF2060204679
:1048700038BD00BF70B5054616460C4661B1084606
:1048800002F05EFF2118324620464FF00003FFF78A
:10489000D1FF2860284670BD4FF0FF31F3E700BF1D
:1048A00000487047281E010800487047301E010864
:1048B00002604160704700BF4B68834201D0002016
:1048C00070470868801AB0FA80F04009704700BF4E
:1048D000704700BF704700BF10B50446FEF756FF93
:1048E000204610BD10B50446FEF750FF204610BD0F
:1048F00010B50B6886B004461B6968469847204689
:104900009DE80600FFF736FF009802AB984201D001
:10491000FEF73CFF204606B010BD009802AB98425F
:1049200001D0FEF733FFFFF70FFE00BF70B505465D
:1049300082B001B3541A0F2C0E4601940AD82B688A
:10494000012C184613D064B9019A6A600021995469
:1049500002B070BD002201A9FFF786F8019B286014
:10496000AB602246314601F0C3FD2B68ECE732789C
:104970001A702B68E8E712B10248FFF7ADFE01920A
:104980000368E1E7C41B010838B50446104602F08D
:10499000CBFE04F108032360054640B102F0D0FECF
:1049A00029462A182046FFF7C1FF204638BD204679
:1049B0004FF0FF322946FFF7B9FF204638BD00BF50
:1049C00030B503680C4D5B69AB4283B014460CD123
:1049D0006368834202D0002003B030BD2068401AD3
:1049E000B0FA80F0400903B030BD0A46014668467F
:1049F000984700990198EBE7B148000810B5064CBC
:104A0000064907482246FEF7BBFE224605490648EE
:104A1000BDE81040FEF7B4BEC8010020D54800082C
:104A2000D8010020D1480008D40100200378472B8A
:104A300001D00020704743784E2BFAD18378552B54
:104A4000F7D1C378432BF4D10379432BF1D14379C8
:104A50002B2BEED183792B2BEBD1C07901288CBF86
:104A600000200120704700BF10B530B10446FFF7A9
:104A700029F82046FFF7DAFF08B9FFF723FD54F8BD
:104A8000140CFFF70BFD00BF2DE9F04F85B0024677
:104A9000FFF7CCFF60B152F8188C52F8145C966A9C
:104AA000176B546B1046FFF70DF84046FFF714FDE7
:104AB0001046FFF707F8FFF713FDFFF703F8FFF7BE
:104AC00001FDFEF7FFFFFFF7E1FCD0F8008098F84A
:104AD0002730012B38D008F178030DF1100A4FF080
:104AE00000094AF8083D27F003030093CB46B3457D
:104AF0001EDA276807B1274453460022394608F1D9
:104B00002000FFF727FD28BB3B6816491B6901936E
:104B100004AA012342F8040D3846019FB847009BC0
:104B2000002818BF4FF001090BF1010B1C44DEE710
:104B3000B9F1000F0BD00420FEF7DEFE0A4B036034
:104B40000A4A0849FFF700F9D8F80030C5E72846B7
:104B5000FFF7A4FCFFF736F9FEF7FAFFFEF7F8FFC0
:104B6000FFF7F2FCEC190108BC190108093800082C
:104B70004068704710B543680C4A0D49016004460F
:104B8000A3F10C00904282B005D12046FEF73AFE18
:104B9000204602B010BD53F8042C511E002A43F8E1
:104BA000041CF2DC01A9FFF743FEEEE71810002019
:104BB000841E010810B50446FFF7DCFF2046FEF70F
:104BC000E5FD204610BD00BF10B5034B0360044651
:104BD000FFF7D0FF204610BDB81E010810B5054BE9
:104BE00003600446FFF7C6FF2046FEF7CFFD2046D0
:104BF00010BD00BFB81E0108184B1A68D1075CBF72
:104C000001221A60164B1A68D2075CBF01221A6093
:104C1000144B1A68D0075CBF01221A60124B1A6845
:104C2000D1075CBF01221A60104B1A68D2075CBF23
:104C300001221A600E4B1A68D0075CBF01221A606D
:104C40000C4B1A68D1075CBF01221A600A4B1A6824
:104C5000D2075CBF01221A60704700BF44100020D9
:104C6000401000203C10002038100020341000209C
:104C7000301000202C10002028100020244B1A682F
:104C8000D0075CBF01221A60224B1A68D1075CBFB3
:104C900001221A60204B1A68D2075CBF01221A60F9
:104CA0001E4B1A68D0075CBF01221A601C4B1A68A1
:104CB000D1075CBF01221A601A4B1A68D2075CBF89
:104CC00001221A60184B1A68D0075CBF01221A60D3
:104CD000164B1A68D1075CBF01221A60144B1A6880
:104CE000D2075CBF01221A60124B1A68D0075CBF62
:104CF00001221A60104B1A68D1075CBF01221A60AA
:104D00000E4B1A68D2075CBF01221A60704700BFC1
:104D100074100020701000206C100020681000201B
:104D200064100020601000205C100020581000204B
:104D300054100020501000204C100020481000207B
:104D4000244B1A68D0075CBF01221A60224B1A68F4
:104D5000D1075CBF01221A60204B1A68D2075CBFE2
:104D600001221A601E4B1A68D0075CBF01221A602C
:104D70001C4B1A68D1075CBF01221A601A4B1A68D3
:104D8000D2075CBF01221A60184B1A68D0075CBFBB
:104D900001221A60164B1A68D1075CBF01221A6003
:104DA000144B1A68D2075CBF01221A60124B1A68B2
:104DB000D0075CBF01221A60104B1A68D1075CBF94
:104DC00001221A600E4B1A68D2075CBF01221A60DA
:104DD000704700BFA4100020A01000209C100020ED
:104DE0009810002094100020901000208C100020BB
:104DF0008810002084100020801000207C100020EB
:104E000078100020184B1A68D1075CBF01221A6085
:104E1000164B1A68D2075CBF01221A60144B1A683D
:104E2000D0075CBF01221A60124B1A68D1075CBF21
:104E300001221A60104B1A68D2075CBF01221A6067
:104E40000E4B1A68D0075CBF01221A600C4B1A681F
:104E5000D1075CBF01221A600A4B1A68D2075CBFF7
:104E600001221A60704700BFC4100020C01000204B
:104E7000BC100020B8100020B4100020B01000209A
:104E8000AC100020A810002008B5062002F040F861
:104E90000120FCF759F900BF13460A4601460220DB
:104EA00007F004BD014B1868704700BF10060020D2
:104EB00008B50021044607F055FD044B1868C36B84
:104EC00003B198472046FCF73FF900BFCC1F01080B
:104ED00000293DD070B505460C4608B1836B7BB305
:104EE000B4F90C300BB9002070BD2146284600F003
:104EF00039F8E36A064633B1E16928469847002845
:104F0000B8BF4FF0FF36A3891B061CD4216B41B1FB
:104F100004F14003994202D02846FCF7EDF8002343
:104F20002363616C21B12846FCF7E6F80023636433
:104F300000F0E2F90023A38100F0E0F9304670BDF3
:104F400000F0D4F9CCE721692846FCF7D5F8DDE775
:104F500000207047024B01461868FFF7B9BF00BF39
:104F600010060020B1F90C309AB22DE9F0410D463F
:104F7000110780463CD46A6843F40063002AAB8181
:104F800073DDAC6A002C4BD09BB203F4805200213D
:104F900092B2D8F80060C8F80010002A69D02A6DD3
:104FA0005F0705D569682B6B521A0BB1EB6BD21AF0
:104FB0000023E9694046A047441C3CD0B5F90C30B9
:104FC0002A692A6023F400630022AB81DB046A6053
:104FD00049D4296BC8F8006011B305F14003994228
:104FE00002D04046FCF788F800202863BDE8F08135
:104FF0002E69AEB12C682E6090070CBF6B69002340
:10500000A41BAB600AE0234632466F6AE96940465A
:10501000B8470028A4EB0004064404DD002CF2DCB1
:105020000020BDE8F081AB8943F04003AB814FF035
:10503000FF30BDE8F081D8F800201D2AF3D81A4BC4
:10504000D34003F0010383F00104002BEBD0B5F94A
:105050000C302969296023F40063D9046C60AB81AA
:10506000B7D5002AB5D12865B3E7EA6B002A88DCFA
:10507000D6E70123E9694046A047431C024602D017
:10508000AB89AC6A8CE7D8F80030002BF8D01D2B28
:1050900001D0162B02D1C8F80060C1E7AB8943F0FC
:1050A0004003AB81BDE8F0810100402010B504460B
:1050B00082B008B1836B53B1B1F90C0008B902B0EA
:1050C00010BD204602B0BDE81040FFF74BBF019174
:1050D00000F00CF90199EFE720B1054B0146186883
:1050E000FFF7E4BF034B0449186800F0BFBD00BFE1
:1050F00010060020CC1F0108AD50000838B50D4B3C
:105100001D6804460DB1AB6B4BB16368013B002BCE
:10511000636008DB23685A1C2260187838BD284673
:1051200000F0E4F8F1E721462846BDE8384001F0F8
:10513000E7BD00BF10060020014900F097BD00BF89
:10514000D14E00082DE9F04F354B4568C36300246C
:10515000074600F53B7204230321C0F8E412C0F8AF
:10516000E822C0F8E04283B02C606C60AC606C66F2
:10517000EC812C616C61AC61AB81214605F15C0076
:10518000082201F0B3FABE68DFF898B0DFF898A003
:10519000DFF89890DFF89880C5F820B00123092245
:1051A000C5F824A0C5F82890C5F82C80ED612146EB
:1051B000F381B28106F15C0034607460B46074669F
:1051C00034617461B4610822019301F08FFAFD68C3
:1051D000F66112200222C6F820B0C6F824A0C6F854
:1051E0002890C6F82C802146A881EA812C606C604A
:1051F000AC606C662C616C61AC6105F15C000822EE
:1052000001F074FA019BED61C5F820B0C5F824A047
:10521000C5F82890C5F82C80BB6303B0BDE8F08FBB
:1052200039510008F16F0008197000085570000826
:105230007570000870B568234D1E03FB05F50E461A
:1052400005F17401FBF754FF044640B100210C3016
:10525000666005F168022160A06001F047FA20460F
:1052600070BD00BF204B70B51D68AB6B064613B90F
:105270002846FFF767FF05F538756B68AC68013B9A
:1052800005D521E0013B5A1C04F168041CD0B4F997
:105290000C20002AF6D1002501234FF6FF72E2818F
:1052A000A38165662560A560656025616561A5616E
:1052B0002946082204F15C0001F018FA25636563B1
:1052C0006564A564204670BD2B680BB11D46D4E70C
:1052D00004213046FFF7AEFF286008B10546CCE751
:1052E0000C23336070BD00BFCC1F0108836B03B17A
:1052F0007047FFF727BF00BF704700BF704700BF70
:10530000F0B5134683B00F4601AA1946064608F0C9
:105310006DFBF0B105463046FFF7A4FF0446C0B16F
:1053200039464FF4DB73019A304601F02DFA00281C
:105330001BDB124B124F1349134AE362EB05E0816A
:10534000A581E46127626162A26205D4204603B0B0
:10535000F0BD002003B0F0BD3046022300222146FC
:1053600000F066F9204603B0F0BD0025FFF7C4FF4A
:10537000A581FFF7C3FF2846E9E700BF7570000865
:10538000F16F00081970000855700008024B0A46BA
:1053900001461868FFF7B4BF10060020084B70B52F
:1053A0001C6805460E4624B1A36B13B92046FFF7CF
:1053B0009DFF324629462046BDE8704001F0FAB90B
:1053C00010060020F8B5234F0C460646FBF7D8FE22
:1053D000BB685D6825F00305291B01F6EF7121F418
:1053E0007F6121F00F01A1F58054B4F5805F07DBE8
:1053F0000021304601F09EFCBB682B44984204D04B
:105400003046FBF7C1FE0020F8BD6142304601F096
:1054100091FC01300DD0104BBA6819682D1B45F076
:1054200001053046091B55601960FBF7ADFE0120F0
:10543000F8BD0021304601F07DFCBA68831A0F2BBD
:10544000DEDD064C0449246843F00103001B536071
:105450000860D5E770060020D41000207C0A0020E8
:10546000002945D02DE9F0410D468046FBF788FE26
:1054700055F8047C6A4927F00103A5F10804E218F5
:105480008E685068B24220F0030062D0FE07506080
:105490000BD455F8087CE41B01F1080EA56875458E
:1054A0003B446FD0E768EF60BD6015186D68ED078D
:1054B00042D543F001026260E350B3F5007F18D299
:1054C000DB085A1C4D6851F83270A76001209B1010
:1054D00000FA03F301EBC2001D430838E0604D60A1
:1054E00041F83240FC604046BDE8F041FBF74CBE5D
:1054F00070475A0A042A53D89A0902F139077F00E3
:1055000002F1380501EB870051F82720444908389B
:1055100090424DD0516821F003018B4202D2926833
:105520009042F7D1D068E060A2608460D4604046C9
:10553000BDE8F041FBF728BE95683A4FBD420344F1
:105540003FD0D068E86043F0010285606260E350BC
:10555000B3E7FF07034407D455F8082CA41A1344F3
:10556000A068E268C26090602F4A126843F00100B0
:10557000934260608C60B6D32C4B40461968FFF7AD
:1055800021FFB0E711184968C90744D49168D2686F
:10559000CA60034443F0010091606060E350A2E7F9
:1055A000142A17D802F15C077F0002F15B05A9E716
:1055B000AA104B68012505FA02F213434B6002461C
:1055C000B1E743F001024C610C61E560A5606260E7
:1055D000E35088E7542A06D81A0B02F16F077F00C0
:1055E00002F16E058EE7B2F5AA7F06D8DA0B02F15A
:1055F00078077F0002F1770584E740F25450824239
:1056000006D89A0C02F17D077F0002F17C0579E74C
:10561000FE277E2576E743F001026260E35062E7F1
:105620007006002078060020780A0020D0100020A4
:1056300000F000B82DE9F04F0C4691B091461E469F
:10564000054610B1836B002B74D0A38903F48473D7
:10565000B3F5847F76D0D4F82880B8F1000F00F03D
:105660004181012E4BD0022E08D03EB116232B6073
:105670004FF0FF37384611B0BDE8F08F4FF0000A09
:1056800023695746002B00F01881B4F90C2040F62E
:105690001A0391B20B4043B949055FD4944B984526
:1056A00000F0F78042F40062A28121462846FFF70D
:1056B000FDFC07460028DBD133464A46E16928460F
:1056C000C0470130D4D0216B41B104F1400399426D
:1056D00002D02846FBF710FD00232363A38922692B
:1056E000226023F402630021A381616004F15C0065
:1056F000082200F0FBFF384611B0BDE8F08F2146CC
:105700002846FFF7D3FCA38903F4805292B2002A03
:1057100000F0B580276D5E075DD4180740F1AD80BD
:10572000226823690AB1D21A1744B9444FF0010A1A
:105730000026A7E7FFF7DAFDA38903F48473B3F526
:10574000847F88D121462846FFF7B0FC83E7A389F0
:105750004FF4806243F48063A381E264002E43D15E
:10576000CB46BAF1000F4ED1A389DA0440F1AA80EA
:10577000206D6368216BC71A002900F0AC80E26BD2
:10578000BF1A1F442069A36B1B1AFF1A1344BB45A1
:105790003FDBFA185A453CD9C7EB0B073844DB1BF3
:1057A00084E8090041B104F14003994202D028463F
:1057B000FBF7A2FC00232363A38923F02003A3812A
:1057C00004F15C000822002100F090FF0027384619
:1057D00011B0BDE8F08F6268236BBF1A002B4CD06C
:1057E000E26B2369BF1AA0E701AAB4F90E1028469C
:1057F00000F080F800287FF458AF059B09EB030BFD
:10580000BAF1000FB0D0216B6368002963D0E26B5E
:10581000B7E7E76CE1697F4207EA0B073A460023E6
:105820002846C04701303FF440AF2369216B236015
:105830000023636041B104F14003994202D028463D
:10584000FBF75AFC00232363A389BBEB070B23F070
:105850002003A381B4D02146284601F0C7F90028CF
:105860007FF423AF626893453FF61FAF2368CBEB0D
:1058700002025B4462602360A2E7236955E7334676
:10588000E1692846C047431C07463FF4F1AEA389AF
:1058900041E7B4F90E100029FFF604AF01AA28462B
:1058A00000F028F830B9029B03F47043B3F5004FC1
:1058B0003FF44DAFB4F90C20F4E62146284600F041
:1058C00073FAE2E601235246E1692846C047431CC9
:1058D0007FF44FAFE9E622682069121ABF1A134419
:1058E000002154E71D232B604FF0FF37C2E600BFB5
:1058F0005570000838B50B46074C0546114618464A
:1059000000232360FBF7DAFB431C00D038BD23687B
:10591000002BFBD02B6038BD581100209368002B62
:1059200076D02DE9F04F8B8985B00C461907019090
:10593000164629D522693AB303F002081FFA88F007
:10594000356800282FD04FF00009B44FC846B24642
:10595000B84543464A4628BF3B460198B8F1000F78
:1059600050D0E169666AB047002871DDDAF8083086
:105970001B1A8144C0EB0808CAF80830002BE7D195
:10598000002005B0BDE8F08F2146019806F02AFFFF
:10599000002840F03A81A389356803F002081FFA15
:1059A00088F00028CFD113F001095BD14F46029651
:1059B0001FB39A05D4F808802CD54745C246C0F0DD
:1059C000A48013F4906F40F0B1802068524649469D
:1059D00000F028FEA0682368C8EB00005344A060D4
:1059E00023603846029A93681B1A81443F1A9360D9
:1059F000002BC5D0A389002FDBD1D5F800906F68AC
:105A00000835D5E7D5F80090D5F8048008359FE72C
:105A10000020704720682369984203D861698F424B
:105A200080F0B780B84528BFB8464246494600F0E6
:105A3000F9FDA3682268C8EB03034244A360226017
:105A4000002B49D121460198FFF730FB002843D0B5
:105A5000B4F90C3043F040034FF0FF30A38105B0A0
:105A6000BDE8F08F8046029082468146B9F1000F72
:105A70002AD0029B002B4CD0206823696269C8455C
:105A8000C34628BFCB4698425F4604D9A368134457
:105A90009B4500F39080934520DB1346676AE169DC
:105AA00001985246B847071ED2DDB8EB070823D04D
:105AB000B368DB1BBA44C7EB0909B360002B3FF4A2
:105AC0005FAFB9F1000FD4D10023D5F800A0D5F80D
:105AD000049002930835C9E7404683E75A46514689
